:020000040800F2
:10000000180600209D010008E316000815150008D9
:10001000E1160008D10300089D1800080000000048
:10002000000000000000000000000000E7160008CB
:100030007504000800000000E5160008E916000835
:10004000B7010008B7010008B7010008B7010008B0
:10005000B7010008B7010008B7010008B7010008A0
:10006000B7010008B7010008B7010008B701000890
:10007000B7010008B7010008B7010008B701000880
:10008000B7010008B7010008B7010008B701000870
:10009000B7010008B7010008B7010008B701000860
:1000A000B7010008B7010008B7010008B701000850
:1000B000B7010008B7010008B7010008B701000840
:1000C000B7010008B7010008B7010008B701000830
:1000D000B7010008B7010008B7010008B701000820
:1000E000B7010008B7010008B7010008B701000810
:1000F000B7010008B7010008B7010008B701000800
:10010000B7010008B7010008B7010008B7010008EF
:10011000B7010008B7010008B7010008B7010008DF
:10012000D5030008B7010008E1030008B701000883
:10013000B7010008B7010008B7010008B7010008BF
:10014000B7010008B7010008B7010008B7010008AF
:10015000B7010008B7010008ED030008B701000867
:10016000B7010008B7010008B7010008B70100088F
:10017000B7010008B7010008B7010008000000003F
:10018000B7010008B7010008DFF80CD000F07AF8DA
:100190000048004735190008180600200648804727
:1001A00006480047FEE7FEE7FEE7FEE7FEE7FEE75C
:1001B000FEE7FEE7FEE7FEE7811700088901000879
:1001C0002DE9F05F0546002092469B46884606468C
:1001D000814640241BE0284641464746224600F01F
:1001E00041F853465A46C01A914110D31146184659
:1001F000224600F028F82D1A67EB01084F462246E8
:100200000120002100F01FF817EB00094E41201ECD
:10021000A4F10104DFDC484631462A464346BDE8E6
:10022000F09FD2B201E000F8012B491EFBD27047CB
:100230000022F6E710B513460A4604461946FFF7B2
:10024000F0FF204610BD202A04DB203A00FA02F11C
:10025000002070479140C2F1200320FA03F31943B4
:1002600090407047202A04DB203A21FA02F0002156
:10027000704721FA02F3D040C2F1200291400843B6
:1002800019467047064C074D06E0E06840F0010350
:1002900094E8070098471034AC42F6D3FFF778FF94
:1002A000A0190008C0190008464910B54A6822F490
:1002B00040324A604A6843681A434A6001684A68A3
:1002C00022F480724A6001684A68036942EA0322A4
:1002D0004A6001684A6822F040724A6001684A68D0
:1002E00083681A434A6001688A6822F400628A605F
:1002F00001688A68C3681A438A60816A6FF0706215
:10030000D14201688A6822F070628A6001688A6856
:100310000CD0836A1A438A6001688A6822F04052CE
:100320008A6001688A68C36A1A4301E022F0405279
:100330008A6001688A6822F002028A6001688A681D
:10034000037E42EA43028A6090F820100029016887
:100350004A680FD042F400624A6001684A6822F499
:1003600060424A6001684A68174C436A04EB4333B1
:100370001A4301E022F400624A600168CA6A22F46A
:100380007002CA620168CA6A838B104C04EB035383
:100390001A43CA6201688A6822F400728A6001689E
:1003A0008A6890F8303042EA43228A6001688A689D
:1003B00022F480628A6001688A68406942EA80208B
:1003C000886010BD0023014000E0FFFF0000F0FF47
:1003D000FEE70000014800F06DB900005C0000205D
:1003E000014800F067B9000054010020014800F006
:1003F00061B90000B401002001681823CAB2103AA4
:10040000B2FBF3F2054B6FF30901032A9B5CC36552
:1004100000D9091D81650846704700008019000851
:1004200010B5014600208B698A6A4FF0C07453B141
:10043000B3F5005F15D072B1012A0CD0022A0AD0A0
:10044000032A09D104E01AB1012A06D0022A03D1F5
:10045000C96AC90100D5012010BDC96AA142FAD0FC
:1004600010BD002AF7D0012AF2D0022AF3D0032AC5
:10047000F3D010BD704772B6FEE7000078B50024D7
:10048000009490F83C20012A19D0012280F83C20E9
:100490000A6807230568092A13D9EE680A3A02EBAD
:1004A000420293409E43EE600B788A680A3B03EB5E
:1004B00043039A400368DD682A43DA6010E00220B3
:1004C00078BD2E6902EB420293409E432E610B7869
:1004D0008A6803EB43039A4003681D692A431A6143
:1004E0004A681F23072A13D205686E6B521E02EB5F
:1004F000820293409E436E630B790A885B1E92B220
:1005000003EB83039A4003685D6B2A435A6327E039
:1005100005680D2A12D22E6BD21F02EB8202934085
:100520009E432E630B790A88DB1F92B203EB830391
:100530009A4003681D6B2A431A6311E0EE6A0D3A74
:1005400002EB820293409E43EE620B790A880D3BD8
:1005500092B203EB83039A400368DD6A2A43DA62AE
:10056000164B0568144A9D4206D10D68122D03D121
:10057000556845F48005556005689D4218D10B68A3
:10058000102B01D0112B13D1536843F40003536097
:10059000096810290CD10A490A4A0968B1FBF2F12D
:1005A00001EB8101490000E0491E00910029FBD1C7
:1005B00080F83C40002078BD00230140002001402D
:1005C0000C00002040420F0070B504004FF0000501
:1005D00003D0206C002610B107E0012070BD20463A
:1005E00000F01CF8666484F83C60206CC00610D4EF
:1005F000206C20F4885040F0020020642046FFF771
:1006000053FE6664206C20F0020040F0010020647C
:1006100000E0012584F83C60284670BD70B586B0C6
:10062000064614216846FFF703FE1D4930688842DC
:1006300033D11C480025016841F4807101600068D5
:1006400000F48070059017481438016841F00101EA
:1006500001600068694600F00100059003200090E9
:10066000CDE90105104800F05FF9114C0F48C4E9CD
:1006700000050015A560C4E903508000606180009A
:10068000A0618011C4E907052046656200F0E2F828
:1006900008B1FFF7F0FEB463A66306B070BD0000BA
:1006A0000020014044380240000002401064024033
:1006B0005C0000202DE9F84304464FF00009CDF816
:1006C000009063484FF41651A56D0068B0FBF1F738
:1006D0002E6894F85C10082000FA01F131420FD026
:1006E00021680A6852070BD50A6822F004020A60E2
:1006F00094F85C108840A860606D40F0010060656F
:1007000094F85C104FF0010808FA01F0304208D06C
:1007100021684969090604D5A860606D40F00200AF
:10072000606594F85C1004208840304208D021684D
:100730000968890704D5A860606D40F00400606511
:1007400094F85C1010208840304218D02168096865
:10075000090714D5A86020680168490304D500681A
:10076000000308D5A16C07E00168C90503D401683E
:1007700021F008010160216C09B12046884794F8F6
:100780005C1020208840304231D021680968C906B9
:100790002DD5A86094F8350005282068016806D09A
:1007A000490347D5006800031DD4616C1CE021F0AB
:1007B000160101602068416921F080014161206CCF
:1007C00008B9A06C20B12068016821F0080101601F
:1007D00094F85C103F208840A86084F8358084F845
:1007E0003490216D1FE0E16B09B120468847606DB0
:1007F00000282BD0606DC00714D0052084F8350088
:100800002068016821F0010101600098401C0090FF
:10081000B84203D820680068C007F6D184F8358054
:1008200084F83490E16C002910D001B02046BDE876
:10083000F04308470168C905D5D4016821F01001CB
:10084000016084F8358084F83490CCE7BDE8F88303
:100850000C0000202DE9F041044600F063F9064643
:100860005CB1022084F83500002584F834502068FB
:10087000016821F0010101600DE00120BDE8F08177
:1008800000F050F9801B052805D920206065032061
:1008900084F83500F2E720680068C007F0D12268CC
:1008A000116820480140D4E901031843D4E9033614
:1008B0003343184363691843A3691843E369184332
:1008C000236A18430843616A042903D1D4E90B134E
:1008D00019430843106020684069666A20F00701E8
:1008E00030460E43012704280CD1A06A0643E06A73
:1008F00040B12046FFF794FD20B14020606584F8A8
:100900003570BAE7206846612046FFF775FD94F818
:100910005C203F2191408160656584F8357000203E
:10092000ACE700003F8010F02DE9F84FDFF8BCA1E4
:100930000022012503264FF00F090AF1040BAAF14A
:10094000040E00BF0B6805FA02F42340A34270D1E5
:100950000F7907F00307012F01D0022F16D1876806
:100960004FEA420806FA08FC27EA0C07D1F80CC047
:100970000CFA08FC4CEA070CC0F808C04768A7430B
:100980000C79C4F3001494403C4344600C79E44374
:10099000A4070AD0C4684FEA420C06FA0CF7BC431D
:1009A0008F6807FA0CF72743C7600C7904F003043B
:1009B000022C12D1D40800EB840CDCF8204057073D
:1009C000FF0E09FA07F824EA0804D1F8108008FAA3
:1009D00007F848EA0408CCF8208004684FEA420C83
:1009E00006FA0CF7BC430F7907F0030707FA0CF778
:1009F000274307604C6814F4403F70D03C4C276894
:100A000047F480472760246822F0030704F48044F9
:100A10000094384C07EB040CDCF8084897074FEAC1
:100A2000177809FA08F7BC43334FB84202D10027C0
:100A300024E054E0314FB84201D101271EE0304F8D
:100A4000B84201D1022719E02E4FB84201D1032745
:100A500014E02D4FB84201D104270FE02B4FB842CC
:100A600001D105270AE02A4FB84201D1062705E047
:100A7000284FB84201D1072700E0082707FA08F7F6
:100A80002743CCF80878DAF800405746D1F804C07C
:100A90009C435FEACC2C00D51C433C60DBF8004053
:100AA0005F46D1F804C09C435FEA8C2C00D51C4300
:100AB0003C60DEF800407746D1F804C09C435FEA12
:100AC0008C3C00D51C433C60084F083F3C68D1F883
:100AD00004C09C435FEACC3C00D51C433C60521CE4
:100AE000102AFFF42FAFBDE8F88F0000083C01404A
:100AF000443802400030014000000240000402403F
:100B000000080240000C02400010024000140240A5
:100B100000180240001C02400AB1816170470904BC
:100B2000FBE70000014880687047000000000020DB
:100B300070B5040025D094F83D00002520B984F854
:100B40003C50204600F0B8F8242084F83D0020688E
:100B5000016821F0010101602068016841F4004151
:100B600001602068016821F40041016000F00CFA86
:100B70004D4A6168914201D84C4900E04C49884295
:100B800001D2012070BD4B492368B0FBF1F15E68D2
:100B900026F03F060E435E606368934206D94FF429
:100BA000967359434FF47A73B1FBF3F12368491CF0
:100BB0001E6A26F03F06314319626168914210D8DF
:100BC0004900401EB0FBF1F2521CC2F30B02042A92
:100BD00001D2042022E0B0FBF1F0401CC0F30B0076
:100BE0001CE0A268F2B301EBC10303EB0116431E44
:100BF000B3FBF6F35B1C43F480431B0549D092B36F
:100C000001EBC10202EB0111401EB0FBF1F0401CF0
:100C1000C0F30B0040F4804040F400402168CA69F2
:100C20004CF6FF739A431043C861D4E9071001439F
:100C30002068026822F0C00211430160D4E9030178
:100C400001432068826848F2FF339A431143816070
:100C5000D4E9050108432168CA6822F0FF02104365
:100C6000C86001E00EE016E02068016841F0010173
:100C700001602564202084F83D00256384F83E50FF
:100C8000002070BD01EB4106431EB3FBF6F35B1C75
:100C9000B3E70120C2E701EB4101401EB0FBF1F0D8
:100CA000401CC0F30B00B7E7A086010080841E0043
:100CB00000093D0040420F0010B586B004461421E3
:100CC0006846FFF7B5FA13492068884220D11248D8
:100CD0000021026842F002020260006800F0020097
:100CE0000590C02000901220CDE90101032003905F
:100CF0000420049069460948FFF716FE06481030A4
:100D0000016841F400110160006800F400100590D2
:100D100006B010BD005400403038024000040240CC
:100D20000248816802781144816070470000002009
:100D30000B4810B5016841F400710160016841F48D
:100D400080610160016841F480710160032000F05E
:100D50006FF80F2000F006F800F024F8002010BD16
:100D6000003C024070B50D4D04464FF47A7128786E
:100D7000B1FBF0F00A490968B1FBF0F000F018FB94
:100D800048B9102C07D200222146501E00F030F83E
:100D900000206C6070BD012070BD000000000020CC
:100DA0000C0000200A4808B5016841F48041016048
:100DB000006800F4804000900548001F016841F081
:100DC00080510160006800F08050009008BD000074
:100DD00044380240002809DB00F01F020121914045
:100DE0004009800000F1E020C0F8001170470000C9
:100DF000F0B40E4B1B680C46C3F30223C3F1070586
:100E0000042D00D90425191D072901D2002300E073
:100E1000DB1E012606FA05F1491E214099409E403D
:100E2000761E16403143F0BC00F039BD0CED00E0F9
:100E3000064900F0070208684FF6FF03184040EA31
:100E40000220034A10430860704700000CED00E0E8
:100E50000000FA052DE9F0470E46050065D0DFF8E1
:100E60001481D8F80000F7B200F00700B04207D2B2
:100E700088F80070D8F8000000F00700B04254D1A4
:100E800028683D4C810712D5400703D5206840F4FF
:100E9000E05020602878000703D5206840F46040C7
:100EA00020602068A96820F0F000084320602878BE
:100EB000C0072DD0304968680839012812D00228AF
:100EC00013D0032811D00968890700292DDA216879
:100ED00021F0030101432160FFF724FE814641F226
:100EE000883A0EE009688903EFE709688901ECE7B1
:100EF000FFF718FEA0EB0901514502D90320BDE818
:100F0000F0872068696800F00C00B0EB810FEFD12A
:100F1000D8F80010404601F00701B14207D9077028
:100F2000006800F00700B04201D00120E7E7287810
:100F3000400705D52068E96820F4E05008432060A8
:100F40002878000706D52068296920F4604040EA27
:100F5000C100206000F038F82168084AC1F303118D
:100F6000515CC8400649086006480068FFF7FAFE71
:100F70000020C4E7003C02400838024088190008FD
:100F80000C0000200400002004480549006809689E
:100F9000044AC1F38221515CC84070470C00002014
:100FA0000838024098190008044805490068096893
:100FB000044AC1F34231515CC84070470C00002024
:100FC0000838024098190008154810B5006810F05C
:100FD0000C02144813D01449042A0FD0082A0ED149
:100FE0000F4C241F2268236802F03F025B0207D5E2
:100FF0002068C0F38810A0FB010106E0084610BD80
:101000002168C1F38811A1FB00010023FFF7D8F884
:101010002168C1F30141491C4900B0FBF1F010BD4A
:10102000083802400024F40040787D012DE9F84F93
:1010300004006ED02078DFF84C93C007A9F10405B6
:101040004AD009F104000168C1F38101012908D0E7
:101050000068C0F3810002280AD1D9F800004002DC
:1010600006D52868800337D560680028E1D033E0D2
:101070006068B0F5803F10D0B0F5A02F286810D080
:1010800020F480302860286820F480202860606880
:10109000A8B1FFF747FD06460DE0286840F4803010
:1010A000F4E740F480202860F7E700BFFFF73AFD3F
:1010B000801B642873D828688003F7D50CE0FFF7FD
:1010C00031FD064605E000BFFFF72CFD801B6428BC
:1010D000F0D828688003F7D42078DFF8AC82800746
:1010E0004FF0000A3ED5A748001D016811F00C0F13
:1010F00008D00068C0F3810002280BD1D9F80000A5
:10110000400207D42868800716D5E068012800D17E
:1011100012E033E1E068B8B10120C8F80000FFF741
:1011200001FD064605E000BFFFF7FCFC801B02281E
:10113000C0D828688007F7D52868216920F0F80012
:1011400040EAC10028600DE0C8F800A0FFF7EAFC03
:10115000064604E0FFF7E6FC801B02281FD828683B
:101160008007F7D42078000722D5864F8748616929
:10117000703771B101210160FFF7D4FC064604E02D
:10118000FFF7D0FC801B022809D838688007F7D504
:101190000EE0C0F800A0FFF7C5FC064605E082E0BF
:1011A000FFF7C0FC801B02287DD838688007F7D481
:1011B0002078400768D5DFF8CCB100270BF13C0B55
:1011C000DBF80000C0000BD4DBF8001041F08051C8
:1011D000CBF80010DBF80000012700F080500090F1
:1011E0006B4E3068C00510D4306840F480703060B9
:1011F000FFF798FC009005E0FFF794FC0099401A77
:10120000022850D83068C005F6D55E4EA0686C360E
:1012100001280FD00528306810D020F00100306080
:10122000306820F004003060A068B8B1FFF77AFCA5
:1012300000900FE0306840F00100F4E740F0040057
:101240003060F7E7FFF76EFC0099411A41F28830F1
:10125000814266D830688007F4D50EE0FFF762FC63
:10126000009007E0FFF75EFC0099411A41F28830D8
:10127000814256D830688007F4D42FB1DBF80010D3
:1012800021F08051CBF80010A069C8B33D49091D79
:101290000968C1F3810102294AD00228504607D0CB
:1012A000C8F8600000E03CE0FFF73CFC04463BE08F
:1012B0004746C8F86000FFF735FC064605E000BF6A
:1012C000FFF730FC801B02282BD828688001F7D458
:1012D000D4E907010843A16A2E4A490802EB0141FB
:1012E000626A41EA8211084394F82C1040EA0161D5
:1012F000C9F8001001203866FFF714FC044606E028
:101300003EE000BFFFF70EFC001B022809D828684A
:101310008001F7D534E000BFFFF704FC001B022872
:1013200002D90320BDE8F88F28688001F4D427E0B3
:101330000128F7D0D9F80000E26900F48001914259
:101340001CD1226A00F03F01914217D147F6C071CB
:10135000626A0140B1EB821F10D1A26A4FF0FF33E5
:1013600000F4403103EB5202B1EB024F06D194F886
:101370002C1000F07060B0EB016F01D00120D1E7BC
:101380000020CFE70438024000004742800E474269
:10139000007000400000FFFF4FF0E02104280869C2
:1013A00003D020F004000861704740F00400FAE721
:1013B00010B5401EB0F1807F01D3012010BD4FF069
:1013C000E02460610F21601700F069FA0020A0613D
:1013D00007202061002010BD70B5040004D094F8EF
:1013E0003D00002510B106E0012070BD84F83C509E
:1013F000204600F023F8242084F83D002068C168CE
:1014000021F40051C160204600F0C2F92068016952
:1014100021F4904101612068416921F02A01416174
:101420002068C16841F40051C1602564202084F81F
:101430003D0084F83E00002070BD00002DE9F04121
:1014400086B0064614216846FEF7F2FE2C49306845
:10145000884251D12B480024016841F010010160FD
:10146000006800F01000059026481438016841F02B
:10147000010101600068694600F0010005904FF429
:10148000C06000900220CDE90104032003900720F2
:1014900004901D48FFF748FA1D4D1C484FF00067A7
:1014A0002860C5E901744FF48068C5E903486C61A0
:1014B000AC61EC612C6228466C62FFF7CBF908B195
:1014C000FEF7D9FFB563AE63114D10486035783033
:1014D000E5E802074020A5E811010D4845F8144948
:1014E0006030AC61EC612C626C62FFF7B3F908B15B
:1014F000FEF7C1FF7563AE6306B0BDE8F081000082
:1015000000100140443802400000024040640240A4
:1015100054010020FEE700007FB500251A48009521
:101520000195029517490395016001244FF480311C
:101530000461C0E90115047680F820501349C0E920
:101540000A150226C661C56080F830404461FFF785
:101550003BF808B1FEF78FFF03200095CDE901406D
:1015600069460948FEF78AFF08B1FEF784FFCDE916
:10157000004669460448FEF781FF002801D0FEF7C7
:101580007AFF7FBD00200140140000200100000F01
:10159000114808B5016841F480010160006800222B
:1015A00000F48000009011463820FFF721FC38201D
:1015B000FFF710FC002211463A20FFF719FC3A20F1
:1015C000FFF708FC002211464620FFF711FCBDE89A
:1015D00008404620FFF7FEBB3038024030B587B0E8
:1015E00014216846FEF724FE1D480024016841F0DE
:1015F00004010160016801F004010591016841F0F6
:1016000080010160016801F080010591016841F0ED
:1016100001010160016801F001010591016841F0DB
:1016200002010160016801F002010591016841F0C9
:101630001001016000680B4D00F0100005900022C1
:1016400002212846FFF768FA022000900120CDE928
:101650000104694628460394FFF766F907B030BDD8
:1016600030380240001002400D4810B50B490160AF
:101670000C49416000214FF480428160C0E90312AF
:1016800041618161C1610162FFF752FA002803D014
:10169000BDE81040FEF7EFBE10BD00000054004052
:1016A000BC000020801A06000C4810B50A490160F1
:1016B0004FF4E1314160002181600C22C160C0E93A
:1016C00004128161C161FFF787FE002803D0BDE8E5
:1016D0001040FEF7D0BE10BD0010014010010020E8
:1016E000FEE7FEE770477047FFF71ABB30B593B0CF
:1016F00030216846FEF79CFD14210CA8FEF798FDEA
:101700001D480025016841F080510160006800F02B
:10171000805011901948016841F4804101600068CF
:10172000022400F4804011900120039010200490C6
:10173000009406940820CDE90750A820CDE90904BB
:1017400004200B906846FFF771FC08B172B6FEE703
:101750000CA90F2081E831004FF4A0500F904FF4F6
:101760008050109005210CA8FFF774FB002801D0D1
:1017700072B6FEE713B030BD403802400070004042
:101780000248016841F470010160704788ED00E093
:1017900070B5044600680169E26821F440511143C4
:1017A00001612169A068E269084361691143084346
:1017B0002168CA6849F20C639A430243CA602068F0
:1017C0004169A26921F440711143416131492068A6
:1017D000884202D03049884202D1FFF7E5FB01E0A0
:1017E000FFF7D2FBE2690023192164253226B2F506
:1017F000004F626828D0A0FB0101930F9200FEF712
:10180000DFFC0146B0FBF5F06FF01802504301EB2E
:10181000800006EB0010B0FBF5F000F0F002B1FB29
:10182000F5F002EB0012B1FBF5F06FF0180358432E
:1018300001EB800006EB0010B0FBF5F000F00F00AC
:1018400021681044886070BDA0FB010192185B41C3
:10185000FEF7B6FC0146B0FBF5F00201B1FBF5F076
:101860006FF01803584301EB800006EBC000B0FB9B
:10187000F5F000F0F80002EB4002B1FBF5F0584340
:1018800001EB800006EBC000B0FBF5F000F00700B4
:10189000D6E700000010014000140140FEE70907F0
:1018A000090E002804DB00F1E02080F800147047E6
:1018B00000F00F0000F1E02080F8141D704702E0F6
:1018C00008C8121F08C1002AFAD1704770470020CB
:1018D00001E001C1121F002AFBD1704710B5044678
:1018E0000420FFF759FD4FF0E0200349416100213A
:1018F00081610248046010BDFEFFFF00100000205F
:1019000070B54FF0E024002265690949A3690968B0
:101910004843A1699942FCD002D2A3EB010302E043
:10192000A5EB010633441A440B468242F1D370BD45
:1019300010000020FFF7FCF9FFF7D8FEFFF74EFE7E
:10194000FFF726FEFFF7E8FDFFF7AEFEFFF78CFE80
:10195000A820FFF7C3FF094C002202212046FFF711
:10196000DBF80120FFF7CCFF012202212046FFF720
:10197000D3F80120FFF7C4FFEEE70000001002409B
:1019800000061016000610160000000000000000FF
:101990000102030406070809000000000102030415
:1019A000C01900080000002014000000BE18000844
:1019B000D41900081400002004060000CE18000806
:1019C0000100000010000000000000000024F400EE
:0419D0000000000013
:040000050800018965
:00000001FF
