:020000040800F2
:10000000680700209D010008AD220008FD1E0008C1
:10001000D1210008690A00086927000800000000D3
:100020000000000000000000000000004B2300085A
:100030000D0B000800000000492300084D230008B4
:10004000B7010008B7010008B7010008B7010008B0
:10005000B7010008B7010008B7010008B7010008A0
:10006000B7010008B7010008B7010008B701000890
:10007000B7010008B7010008B7010008B701000880
:10008000B7010008B7010008B7010008B701000870
:10009000B7010008B7010008B7010008B701000860
:1000A000B7010008B7010008B7010008B701000850
:1000B000B7010008B7010008B7010008B701000840
:1000C000B7010008B7010008B7010008B701000830
:1000D000B7010008B7010008B7010008B701000820
:1000E000B7010008B7010008B7010008B701000810
:1000F000B7010008B7010008B7010008B701000800
:10010000B7010008B7010008B7010008B7010008EF
:10011000B7010008B7010008B7010008B7010008DF
:100120006D0A0008B7010008790A0008B701000845
:10013000B7010008B7010008B7010008B7010008BF
:10014000B7010008B7010008B7010008B7010008AF
:10015000B7010008B7010008850A0008B7010008C8
:10016000B7010008B7010008B7010008B70100088F
:10017000B7010008B7010008B7010008000000003F
:10018000B7010008B7010008DFF80CD000F0A8FBA9
:100190000048004759390008680700200648804792
:1001A00006480047FEE7FEE7FEE7FEE7FEE7FEE75C
:1001B000FEE7FEE7FEE7FEE7E52300088901000809
:1001C000DFED190AB5EEC00A60EE200ABDEEE01AB6
:1001D00011EE100AF1EE10FA38BF401E00EE100AC0
:1001E0001349F7EE001AB8EEC00A30EEC00ADFED90
:1001F0000F0A60EE200ABCEEE00A10EE100AC0F30F
:10020000080000EE100A01EB8000B8EE400A90ED05
:10021000011A70EEC00A90ED000A71EEE01A21EEAC
:10022000800A00EE810A704783F9223E00000044F4
:100230000C3C00082DE9F05F0546002092469B46E5
:1002400088460646814640241BE0284641464746EC
:10025000224600F01BFA53465A46C01A914110D369
:1002600011461846224600F002FA2D1A67EB0108E3
:100270004F4622460120002100F0F9F917EB000952
:100280004E41201EA4F10104DFDC484631462A46D7
:100290004346BDE8F09FD2B201E000F8012B491EB1
:1002A000FBD270470022F6E710B513460A46044613
:1002B0001946FFF7F0FF204610BD2DE9FE4F80469E
:1002C00081EA0300C00F0C46009021F0004123F0AA
:1002D0000045B8EB0200A94105D2404621469046B0
:1002E0001C460B46024623F00040104347D0270D22
:1002F000C7F30A00C3F30A510290401A0190402844
:100300006BDAC3F3130040F4801B0098924620B1CF
:100310000023D2EB030A63EB0B0B01985946C0F1A3
:100320004002504600F0A3F906460D465046594695
:10033000019A00F0BBF910EB08006141002487EA44
:10034000115284EAE7731A4340D0009A62B3019ACB
:10035000012A4FEA075215DC001B61EB02014FF046
:10036000004202EA0752CDE90042001C41F580112B
:1003700032462B4600F0F2F903B0BDE8F08F40465C
:100380002146F9E7001B61EB0201001C41F58013D7
:1003900000185B412018A2F5001747EB030140EA63
:1003A000D570B6196D4111E06D084FEA360645EA81
:1003B000C0754FEA0752001B61EB0201001C41F5BA
:1003C000801149084FEA30000019514132462B464E
:1003D00003B0BDE8F04F00F0B2B900980122400030
:1003E0000023D0EB020263EBE073009821464FEA52
:1003F000E074B8EB000061EB0401E9E783F000432F
:100400005BE781F0004158E72DE9FE4F81EA0304E4
:1004100004F0004421F0004100944FF0000B23F061
:10042000004350EA01045ED052EA03045BD0C3F3F8
:100430000A54C1F30A552C44A4F2F3340194A0FBEE
:100440000254C1F3130141F48011C3F3130343F4C5
:10045000801301FB024400FB034E840A970A44EA1E
:10046000815447EA8357A4FB076802958D0A05FB70
:1004700007854FEA932C04FB0C542705029D4FEA95
:10048000065847EA1637B5EB08056EEB070C870EE2
:10049000920E47EA811742EA8312A7FB0201B6EBEC
:1004A0000B0164EB00042B0D43EA0C335E1844EBA4
:1004B0001C50DA465146E7FB0201C5F313044FEA2C
:1004C0000B3343EA14534FEA0432019C43EA060318
:1004D000A4F10C040294009CCDE900B400F03EF9B4
:1004E00003B0BDE8F08F00200146F9E72DE9F04D9B
:1004F00081EA030404F0004B21F0004514464FF05C
:10050000000A23F0004150EA050220D054EA01021B
:100510001DD0C5F30A570246C5F31303C1F31300F8
:10052000C1F30A5640F4801543F48013A7EB060884
:10053000101BD64608F2FD3873EB050002D308F114
:10054000010801E092185B41B8F1000F03DA0020C6
:100550000146BDE8F08D00204FF480110646844628
:100560000EE0171B73EB050705D3121B63EB0503A6
:1005700006434CEA010C49084FEA300092185B41EF
:1005800050EA0107EDD152EA030012D082EA0400DA
:1005900083EA0501084305D0101BAB4106D20122B6
:1005A000002306E000224FF0004302E06FF001025A
:1005B00053101AEB06004CEB085110EB0A0041EB0C
:1005C0000B01BDE8F04D00F0BAB80EB540F2334172
:1005D00002910021CDE900110A460B4600F0BEF859
:1005E00003B000BD00F0004230F000400AD0C10D61
:1005F00001F56071C0F3160042EA0151C2084007DC
:100600001143704700200146704701F0004330B4A9
:1006100021F0004150EA010206D00A0DA2F56072F5
:10062000C1F31301002A02DC30BC00207047440FE4
:1006300044EAC104C100E01830BC00EBC25000F035
:1006400047B830B50B46014600202022012409E0BE
:1006500021FA02F59D4205D303FA02F5491B04FA7B
:1006600002F52844151EA2F10102F1DC30BD202A5A
:1006700004DB203A00FA02F1002070479140C2F1F9
:10068000200320FA03F3194390407047202A04DB2B
:10069000203A21FA02F00021704721FA02F3D040FB
:1006A000C2F120029140084319467047202A06DB18
:1006B000CB17203A41FA02F043EAE07306E041FA30
:1006C00002F3D040C2F1200291400843194670471E
:1006D0000029A8BF7047401C490008BF20F0010056
:1006E000704710B4B0FA80FC00FA0CF050EA010434
:1006F00004BF10BC704749B1CCF1200421FA04F4C6
:1007000011FA0CF118BF012121430843A3EB0C019E
:10071000CB1D4FEA00614FEA102042BF002010BC01
:10072000704700EBC35010440029A4BF10BC7047B1
:10073000401C490008BF20F0010010BC704710B5F4
:10074000141E73F1000408DA401C41F100019218F4
:100750005B411A4301D120F0010010BD2DE9F04D9D
:1007600092469B4611B1B1FA81F202E0B0FA80F2F2
:1007700020329046FFF77BFF04460F4640EA0A000E
:1007800041EA0B0153465A46084313D0114653EA37
:10079000010019D0C8F140025046FFF777FF054627
:1007A0000E46504659464246FFF761FF084305D0C2
:1007B000012004E020463946BDE8F08D00200543C5
:1007C00046EAE0762C4337430A986305E40AA0EB37
:1007D00008000022FD0A44EA47540A3002D50020EE
:1007E0000146E9E7010510196941DDE908450019ED
:1007F0006941BDE8F04DA2E72DE9FE4FC3F30A576A
:1008000001F000450024C1F30A56C3F31303C1F3FA
:10081000130143F4801312EB020AA64641F480113F
:10082000009543EB030CA7F1010B16E0B0EB0A00B7
:1008300061EB0C01071E71F1000707DA4FF00008A9
:10084000D0EB080085F0004568EB0101171A73EB47
:100850000107EBD3761E001849415E45F6DA50EAEF
:10086000010209D0CDE900E5002213460296FFF708
:1008700075FF03B0BDE8F08F20460099F9E7C1F39A
:100880000A52C1F3130140F2FF3341F480119A423E
:1008900002DA00200146704740F233439A42A2F246
:1008A000334202DC5242FFF7F1BEFFF7E0BE000028
:1008B00030B5041E71F1000404DB4FF000444042E7
:1008C00064EB0101141E73F1000405DB1C464FF0BC
:1008D0000043524263EB0403994208BF904230BD8B
:1008E000064C074D06E0E06840F0010394E807007D
:1008F00098471034AC42F6D3FFF74AFCB0440008E6
:10090000D0440008464910B54A6822F440324A6093
:100910004A6843681A434A6001684A6822F4807250
:100920004A6001684A68036942EA03224A60016832
:100930004A6822F040724A6001684A6883681A4334
:100940004A6001688A6822F400628A6001688A68E5
:10095000C3681A438A60816A6FF07062D14201688D
:100960008A6822F070628A6001688A680CD0836AA3
:100970001A438A6001688A6822F040528A600168DE
:100980008A68C36A1A4301E022F040528A60016813
:100990008A6822F002028A6001688A68037E42EA5D
:1009A00043028A6090F82010002901684A680FD03D
:1009B00042F400624A6001684A6822F460424A6078
:1009C00001684A68174C436A04EB43331A4301E059
:1009D00022F400624A600168CA6A22F47002CA62A4
:1009E0000168CA6A838B104C04EB03531A43CA6232
:1009F00001688A6822F400728A6001688A6890F847
:100A0000303042EA43228A6001688A6822F48062B8
:100A10008A6001688A68406942EA8020886010BD67
:100A20000023014000E0FFFF0000F0FF0B48B2EEA2
:100A3000080A072180ED000A9FED090A017180ED87
:100A4000020AB2EE000A80ED030AB3EE040A80ED5A
:100A5000040A9FED040A80ED050A70479C020020FD
:100A6000CDCC4C3F00004842FEE70000014800F0BA
:100A70006DB900009C000020014800F067B900003B
:100A8000DC010020014800F061B900003C020020B8
:100A900001681823CAB2103AB2FBF3F2054B6FF3A8
:100AA0000901032A9B5CC36500D9091D81650846BD
:100AB00070470000EC3B000810B5014600208B6930
:100AC0008A6A4FF0C07453B1B3F5005F15D072B1AC
:100AD000012A0CD0022A0AD0032A09D104E01AB153
:100AE000012A06D0022A03D1C96AC90100D5012012
:100AF00010BDC96AA142FAD010BD002AF7D0012A60
:100B0000F2D0022AF3D0032AF3D010BD704772B698
:100B1000FEE7000078B50024009490F83C20012AFC
:100B200019D0012280F83C200A6807230568092AA9
:100B300013D9EE680A3A02EB420293409E43EE60FC
:100B40000B788A680A3B03EB43039A400368DD682D
:100B50002A43DA6010E0022078BD2E6902EB4202DF
:100B600093409E432E610B788A6803EB43039A40BF
:100B700003681D692A431A614A681F23072A13D292
:100B800005686E6B521E02EB820293409E436E63B9
:100B90000B790A885B1E92B203EB83039A400368C9
:100BA0005D6B2A435A6327E005680D2A12D22E6B2B
:100BB000D21F02EB820293409E432E630B790A8878
:100BC000DB1F92B203EB83039A4003681D6B2A4339
:100BD0001A6311E0EE6A0D3A02EB820293409E43E3
:100BE000EE620B790A880D3B92B203EB83039A40C5
:100BF0000368DD6A2A43DA62164B0568144A9D428F
:100C000006D10D68122D03D1556845F48005556055
:100C100005689D4218D10B68102B01D0112B13D100
:100C2000536843F400035360096810290CD10A4942
:100C30000A4A0968B1FBF2F101EB8101490000E0C9
:100C4000491E00910029FBD180F83C40002078BD6E
:100C500000230140002001401000002040420F000E
:100C600070B504004FF0000503D0206C002610B1D1
:100C700007E0012070BD204600F01CF8666484F88F
:100C80003C60206CC00610D4206C20F4885040F0EA
:100C9000020020642046FFF735FE6664206C20F0D9
:100CA000020040F00100206400E0012584F83C606F
:100CB000284670BD70B586B0064614216846FFF719
:100CC000F1FA1D493068884233D11C48002501687B
:100CD00041F480710160006800F48070059017484D
:100CE0001438016841F0010101600068694600F0B4
:100CF0000100059003200090CDE90105104800F0A7
:100D00005FF9114C0F48C4E900050015A560C4E95E
:100D10000350800060618000A0618011C4E9070574
:100D20002046656200F0E2F808B1FFF7F0FEB46318
:100D3000A66306B070BD00000020014044380240A8
:100D400000000240106402409C0000202DE9F8439E
:100D500004464FF00009CDF8009063484FF4165157
:100D6000A56D0068B0FBF1F72E6894F85C100820C0
:100D700000FA01F131420FD021680A6852070BD501
:100D80000A6822F004020A6094F85C108840A860A7
:100D9000606D40F00100606594F85C104FF0010850
:100DA00008FA01F0304208D021684969090604D5E3
:100DB000A860606D40F00200606594F85C1004204B
:100DC0008840304208D021680968890704D5A860A6
:100DD000606D40F00400606594F85C10102088405D
:100DE000304218D021680968090714D5A860206826
:100DF0000168490304D50068000308D5A16C07E029
:100E00000168C90503D4016821F008010160216C63
:100E100009B12046884794F85C1020208840304271
:100E200031D021680968C9062DD5A86094F835002D
:100E300005282068016806D0490347D500680003EB
:100E40001DD4616C1CE021F016010160206841692D
:100E500021F080014161206C08B9A06C20B12068AC
:100E6000016821F00801016094F85C103F2088407F
:100E7000A86084F8358084F83490216D1FE0E16B20
:100E800009B120468847606D00282BD0606DC007EF
:100E900014D0052084F835002068016821F0010194
:100EA00001600098401C0090B84203D82068006898
:100EB000C007F6D184F8358084F83490E16C0029BD
:100EC00010D001B02046BDE8F04308470168C905CD
:100ED000D5D4016821F01001016084F8358084F8D0
:100EE0003490CCE7BDE8F883100000202DE9F041F4
:100EF000044600F063F906465CB1022084F8350030
:100F0000002584F834502068016821F00101016057
:100F10000DE00120BDE8F08100F050F9801B0528AC
:100F200005D920206065032084F83500F2E72068A9
:100F30000068C007F0D12268116820480140D4E958
:100F400001031843D4E90336334318436369184354
:100F5000A3691843E3691843236A18430843616A85
:100F6000042903D1D4E90B13194308431060206806
:100F70004069666A20F0070130460E4301270428C5
:100F80000CD1A06A0643E06A40B12046FFF794FD09
:100F900020B14020606584F83570BAE7206846616A
:100FA0002046FFF775FD94F85C203F219140816059
:100FB000656584F835700020ACE700003F8010F0D4
:100FC0002DE9F84FDFF8BCA10022012503264FF0E0
:100FD0000F090AF1040BAAF1040E00BF0B6805FA11
:100FE00002F42340A34270D10F7907F00307012FC9
:100FF00001D0022F16D187684FEA420806FA08FC92
:1010000027EA0C07D1F80CC00CFA08FC4CEA070CD4
:10101000C0F808C04768A7430C79C4F30014944093
:101020003C4344600C79E443A4070AD0C4684FEA07
:10103000420C06FA0CF7BC438F6807FA0CF72743FB
:10104000C7600C7904F00304022C12D1D40800EB21
:10105000840CDCF820405707FF0E09FA07F824EA51
:101060000804D1F8108008FA07F848EA0408CCF818
:10107000208004684FEA420C06FA0CF7BC430F7953
:1010800007F0030707FA0CF7274307604C6814F4CE
:10109000403F70D03C4C276847F480472760246865
:1010A00022F0030704F480440094384C07EB040C4E
:1010B000DCF8084897074FEA177809FA08F7BC43A5
:1010C000334FB84202D1002724E054E0314FB842F8
:1010D00001D101271EE0304FB84201D1022719E0AB
:1010E0002E4FB84201D1032714E02D4FB84201D151
:1010F00004270FE02B4FB84201D105270AE02A4F01
:10110000B84201D1062705E0284FB84201D1072790
:1011100000E0082707FA08F72743CCF80878DAF840
:1011200000405746D1F804C09C435FEACC2C00D560
:101130001C433C60DBF800405F46D1F804C09C4390
:101140005FEA8C2C00D51C433C60DEF800407746FB
:10115000D1F804C09C435FEA8C3C00D51C433C6042
:10116000084F083F3C68D1F804C09C435FEACC3C80
:1011700000D51C433C60521C102AFFF42FAFBDE881
:10118000F88F0000083C0140443802400030014024
:10119000000002400004024000080240000C02402F
:1011A000001002400014024000180240001C0240DF
:1011B0000AB1816170470904FBE7000001488068BB
:1011C000704700000400002070B5040025D094F89A
:1011D0003D00002520B984F83C50204600F0B8F8C6
:1011E000242084F83D002068016821F0010101609D
:1011F0002068016841F4004101602068016821F421
:101200000041016000F00CFA4D4A6168914201D83A
:101210004C4900E04C49884201D2012070BD4B4945
:101220002368B0FBF1F15E6826F03F060E435E6076
:101230006368934206D94FF4967359434FF47A7317
:10124000B1FBF3F12368491C1E6A26F03F063143C7
:1012500019626168914210D84900401EB0FBF1F25A
:10126000521CC2F30B02042A01D2042022E0B0FB7C
:10127000F1F0401CC0F30B001CE0A268F2B301EBDC
:10128000C10303EB0116431EB3FBF6F35B1C43F4EF
:1012900080431B0549D092B301EBC10202EB01115F
:1012A000401EB0FBF1F0401CC0F30B0040F4804046
:1012B00040F400402168CA694CF6FF739A4310431A
:1012C000C861D4E9071001432068026822F0C00217
:1012D00011430160D4E9030101432068826848F2A8
:1012E000FF339A4311438160D4E905010843216823
:1012F000CA6822F0FF021043C86001E00EE016E069
:101300002068016841F0010101602564202084F813
:101310003D00256384F83E50002070BD01EB41067E
:10132000431EB3FBF6F35B1CB3E70120C2E701EBFE
:101330004101401EB0FBF1F0401CC0F30B00B7E7C9
:10134000A086010080841E0000093D0040420F007D
:1013500010B586B0044614216846FEF7A3FF134972
:101360002068884220D112480021026842F002021F
:101370000260006800F002000590C020009012207A
:10138000CDE9010103200390042004906946094837
:10139000FFF716FE06481030016841F400110160A5
:1013A000006800F40010059006B010BD0054004025
:1013B000303802400004024002488168027811443B
:1013C00081607047040000200B4810B5016841F4AB
:1013D00000710160016841F480610160016841F4BD
:1013E00080710160032000F06FF80F2000F006F814
:1013F00000F024F8002010BD003C024070B50D4DF7
:1014000004464FF47A712878B1FBF0F00A49096874
:10141000B1FBF0F000F018FB48B9102C07D2002205
:101420002146501E00F030F800206C6070BD012095
:1014300070BD000004000020100000200A4808B51C
:10144000016841F480410160006800F48040009030
:101450000548001F016841F080510160006800F0FC
:101460008050009008BD000044380240002809DB8D
:1014700000F01F02012191404009800000F1E020AE
:10148000C0F8001170470000F0B40E4B1B680C460A
:10149000C3F30223C3F10705042D00D90425191D48
:1014A000072901D2002300E0DB1E012606FA05F120
:1014B000491E214099409E40761E16403143F0BCA3
:1014C00001F0CEB90CED00E0064900F00702086813
:1014D0004FF6FF03184040EA0220034A1043086019
:1014E000704700000CED00E00000FA052DE9F04720
:1014F0000E46050065D0DFF81481D8F80000F7B279
:1015000000F00700B04207D288F80070D8F8000059
:1015100000F00700B04254D128683D4C810712D535
:10152000400703D5206840F4E05020602878000789
:1015300003D5206840F4604020602068A96820F04E
:10154000F000084320602878C0072DD03049686833
:101550000839012812D0022813D0032811D00968B5
:10156000890700292DDA216821F003010143216058
:10157000FFF724FE814641F2883A0EE009688903AC
:10158000EFE709688901ECE7FFF718FEA0EB090116
:10159000514502D90320BDE8F0872068696800F052
:1015A0000C00B0EB810FEFD1D8F80010404601F0ED
:1015B0000701B14207D90770006800F00700B04288
:1015C00001D00120E7E72878400705D52068E968C1
:1015D00020F4E050084320602878000706D52068F2
:1015E000296920F4604040EAC100206000F038F82A
:1015F0002168084AC1F30311515CC84006490860DC
:1016000006480068FFF7FAFE0020C4E7003C0240ED
:1016100008380240F43B00081000002008000020B9
:101620000448054900680968044AC1F38221515CF5
:10163000C84070471000002008380240043C0008F1
:101640000448054900680968044AC1F34231515C05
:10165000C84070471000002008380240043C0008D1
:10166000154810B5006810F00C02144813D0144946
:10167000042A0FD0082A0ED10F4C241F2268236899
:1016800002F03F025B0207D52068C0F38810A0FB80
:10169000010106E0084610BD2168C1F38811A1FBD5
:1016A00000010023FEF7C6FD2168C1F30141491C7A
:1016B0004900B0FBF1F010BD083802400024F400EE
:1016C00040787D012DE9F84F04006ED02078DFF8D6
:1016D0004C93C007A9F104054AD009F10400016840
:1016E000C1F38101012908D00068C0F381000228FC
:1016F0000AD1D9F80000400206D52868800337D502
:1017000060680028E1D033E06068B0F5803F10D019
:10171000B0F5A02F286810D020F480302860286809
:1017200020F4802028606068A8B1FFF747FD0646D6
:101730000DE0286840F48030F4E740F48020286011
:10174000F7E700BFFFF73AFD801B642873D82868CD
:101750008003F7D50CE0FFF731FD064605E000BF3A
:10176000FFF72CFD801B6428F0D828688003F7D48D
:101770002078DFF8AC8280074FF0000A3ED5A748FA
:10178000001D016811F00C0F08D00068C0F3810043
:1017900002280BD1D9F80000400207D4286880073E
:1017A00016D5E068012800D112E033E1E068B8B155
:1017B0000120C8F80000FFF701FD064605E000BF64
:1017C000FFF7FCFC801B0228C0D828688007F7D5EB
:1017D0002868216920F0F80040EAC10028600DE087
:1017E000C8F800A0FFF7EAFC064604E0FFF7E6FCB5
:1017F000801B02281FD828688007F7D420780007AC
:1018000022D5864F87486169703771B10121016027
:10181000FFF7D4FC064604E0FFF7D0FC801B02284B
:1018200009D838688007F7D50EE0C0F800A0FFF7A8
:10183000C5FC064605E082E0FFF7C0FC801B0228DD
:101840007DD838688007F7D42078400768D5DFF85E
:10185000CCB100270BF13C0BDBF80000C0000BD42F
:10186000DBF8001041F08051CBF80010DBF80000ED
:10187000012700F0805000906B4E3068C00510D4F6
:10188000306840F480703060FFF798FC009005E00D
:10189000FFF794FC0099401A022850D83068C00520
:1018A000F6D55E4EA0686C3601280FD0052830684A
:1018B00010D020F001003060306820F0040030606B
:1018C000A068B8B1FFF77AFC00900FE0306840F0F4
:1018D0000100F4E740F004003060F7E7FFF76EFC2A
:1018E0000099411A41F28830814266D830688007F9
:1018F000F4D50EE0FFF762FC009007E0FFF75EFC16
:101900000099411A41F28830814256D830688007E8
:10191000F4D42FB1DBF8001021F08051CBF8001087
:10192000A069C8B33D49091D0968C1F381010229B5
:101930004AD00228504607D0C8F8600000E03CE0DA
:10194000FFF73CFC04463BE04746C8F86000FFF761
:1019500035FC064605E000BFFFF730FC801B02287F
:101960002BD828688001F7D4D4E907010843A16A7D
:101970002E4A490802EB0141626A41EA821108439A
:1019800094F82C1040EA0161C9F800100120386673
:10199000FFF714FC044606E03EE000BFFFF70EFC34
:1019A000001B022809D828688001F7D534E000BF61
:1019B000FFF704FC001B022802D90320BDE8F88FC2
:1019C00028688001F4D427E00128F7D0D9F8000076
:1019D000E26900F4800191421CD1226A00F03F01CB
:1019E000914217D147F6C071626A0140B1EB821F84
:1019F00010D1A26A4FF0FF3300F4403103EB5202E2
:101A0000B1EB024F06D194F82C1000F07060B0EBEF
:101A1000016F01D00120D1E70020CFE70438024058
:101A200000004742800E4742007000400000FFFF68
:101A30004FF0E0210428086903D020F00400086179
:101A4000704740F00400FAE710B5401EB0F1807F07
:101A500001D3012010BD4FF0E02460610F21601719
:101A600000F0FEFE0020A06107202061002010BDD4
:101A700010B590F83C20012A22D0012280F83C20A9
:101A8000CA688C6822F4407222434C6822F4806257
:101A900022430C6822F4006222430C6922F4805233
:101AA00022434C6922F400522243C969002322F4E4
:101AB00080420A4301684A6480F83C30002010BD2F
:101AC000022010BD70B590F83C20012A32D00124CC
:101AD00080F83C40022280F83D2003685A689D68E7
:101AE00022F070060A6832435A60134B02689A4229
:101AF00014D0B2F1804F11D0104B9A420ED0104B3F
:101B00009A420BD00F4B9A4208D00F4B9A4205D005
:101B10000E4B9A4202D00E4B9A4204D1496825F0EE
:101B200080031943916080F83D40002180F83C100B
:101B3000084670BD022070BD000001400004004056
:101B400000080040000C004000040140004001403B
:101B50000018004010B586B0044614216846FEF710
:101B6000A1FB0E492068884216D10D480021026869
:101B700042F010020260006800F0100005904FF47F
:101B8000285000900220CDE901010120CDE9031089
:101B900069460448FFF714FA06B010BD0000014082
:101BA000303802400010024070B5044690F83C0006
:101BB00000260D4601280FD0012084F83C006AB1B0
:101BC000042A1DD0082A2FD00C2A3FD0012600203D
:101BD00084F83C00304670BD022070BD206800F0E3
:101BE0007BFC2068816941F008018161206881697E
:101BF00021F004018161206881692A69114311E0A3
:101C0000206800F099FC2068816941F400618161DD
:101C10002068816921F480618161206881692A6975
:101C200041EA02218161D2E7206800F0BBFC206814
:101C3000C16941F00801C1612068C16921F0040156
:101C4000C1612068C1692A69114311E0206800F070
:101C5000DDFC2068C16941F40061C1612068C1698F
:101C600021F48061C1612068C1692A6941EA0221C9
:101C7000C161ACE710B5040003D094F83D0010B189
:101C800007E0012010BD002084F83C00204600F051
:101C90001FF8022084F83D00211D206800F0AAFBF7
:101CA000012084F8460084F83E0084F83F0084F860
:101CB000400084F8410084F8420084F8430084F82E
:101CC000440084F8450084F83D00002010BD000069
:101CD00008B500680649884208D10648016841F005
:101CE00001010160006800F00100009008BD0000E3
:101CF000000001404438024010B50446022249B1B8
:101D000004290ED0082913D094F84100012816D0D8
:101D1000012010BD94F83E000128F9D184F83E203E
:101D20000FE094F83F000128F2D184F83F2008E04A
:101D300094F840000128EBD184F8402001E084F8B9
:101D400041200122206800F0B9FB16492068164A9C
:101D5000884201D0904203D1436C43F40043436472
:101D60002068884213D0B0F1804F10D00F498842CC
:101D70000DD00F4988420AD00E49884207D09042C0
:101D800005D00D49884202D00C49884204D18168AF
:101D900001F00701062903D0016841F0010101604B
:101DA000002010BD0000014000040140000400407C
:101DB00000080040000C00400040014000180040B6
:101DC00070B5040004D094F83D00002510B106E081
:101DD000012070BD84F83C50204600F023F82420F8
:101DE00084F83D002068C16821F40051C16020469C
:101DF00000F034FC2068016921F490410161206801
:101E0000416921F02A0141612068C16841F4005113
:101E1000C1602564202084F83D0084F83E00002045
:101E200070BD00002DE9F04186B0064614216846D9
:101E3000FEF738FA2C493068884251D12B480024EB
:101E4000016841F010010160006800F01000059089
:101E500026481438016841F00101016000686946B4
:101E600000F0010005904FF4C06000900220CDE921
:101E7000010403200390072004901D48FFF7A0F8F9
:101E80001D4D1C484FF000672860C5E901744FF4F0
:101E90008068C5E903486C61AC61EC612C6228463E
:101EA0006C62FFF723F808B1FEF731FEB563AE634D
:101EB000114D104860357830E5E802074020A5E86C
:101EC00011010D4845F814496030AC61EC612C6299
:101ED0006C62FFF70BF808B1FEF719FE7563AE638D
:101EE00006B0BDE8F0810000001001404438024017
:101EF0000000024040640240DC010020FEE70000D8
:101F00000D49DFED0C0A9FED0D0AC1ED000A81EDD0
:101F1000010A002088600C31C1ED000A81ED010A40
:101F20008860DFED070A0C31C1ED000A81ED010A7E
:101F300088607047CDCC4C3DB4020020000000000A
:101F400017B7D1387FB500251A480095019502953D
:101F500017490395016001244FF480310461C0E901
:101F60000115047680F820501349C0E90A150226AD
:101F7000C661C56080F830404461FEF771FE08B16B
:101F8000FEF7C5FD03200095CDE9014069460948EB
:101F9000FEF7C0FD08B1FEF7BAFDCDE9004669467F
:101FA0000448FEF7B7FD002801D0FEF7B0FD7FBD65
:101FB00000200140540000200100000F114808B526
:101FC000016841F4800101600068002200F4800093
:101FD000009011463820FFF757FA3820FFF746FAED
:101FE000002211463A20FFF74FFA3A20FFF73EFA57
:101FF000002211464620FFF747FABDE80840462078
:10200000FFF734BA3038024070B586B01421684604
:10201000FEF748F91E480024016841F00401016000
:10202000016801F004010591016841F0800101603F
:10203000016801F080010591016841F00101016032
:10204000016801F001010591016841F01001016092
:10205000016801F010010591016841F00201016081
:1020600000680C4E00F0020044F2020505900022C8
:1020700029463046FFF79CF801200095CDE9010480
:10208000694630460394FEF79BFF06B070BD000022
:1020900030380240001002400D4810B50B49016075
:1020A0000C49416000214FF480428160C0E9031275
:1020B00041618161C1610162FFF786F8002803D0A8
:1020C000BDE81040FEF723BD10BD000000540040E5
:1020D000FC000020801A060010B592B000240F9476
:1020E0001C2168461094FEF7DDF8202107A8FEF7B2
:1020F000D9F8284826490160A721C0E901146321C5
:10210000C0E903148021C0E90541FFF7B3FD08B120
:10211000FEF7FDFC0F940FA91E481094FFF7D2FCA8
:1021200008B1FEF7F4FC6020CDE9000402940394AA
:10213000049405940022694616480694FFF734FD7E
:1021400008B1FEF7E4FC042269461248FFF72CFDB3
:1021500008B1FEF7DCFC082269460E48FFF724FDB3
:1021600008B1FEF7D4FC0794089409944FF400508A
:102170000A94CDE90B4007A906480E94FFF778FCB6
:1021800008B1FEF7C4FC0348FFF7E4FC12B010BD31
:1021900000000140500100200C4810B50A490160C0
:1021A0004FF4E1314160002181600C22C160C0E93F
:1021B00004128161C161FFF703FE002803D0BDE86E
:1021C0001040FEF7A4BC10BD001001409801002093
:1021D000FEE7000010B514A000F01AFB1748D0ED80
:1021E000020A90ED030AF4EEC00AF1EE10FA01DDE6
:1021F00080ED020A1249012281ED040A114981EDA4
:10220000040A114990ED050A81ED040A90ED040AD3
:102210000E48910380ED040A0D48FEF7C9FFBDE8A2
:1022200010400CA000F0F4BA4D6F746F722053741C
:1022300061727420496E6974000000009C020020E5
:10224000D8020020FC0200202003002044030020CC
:10225000001002404D4F543A20456E61626C65207B
:102260006472697665722E0D0A00000010B50D4883
:102270002DED028B00F12C0401789FED0B8A0329D0
:102280000BD0042906D180ED070A00BF84ED010AB6
:1022900084ED008ABDEC028B10BD80ED060A00F0D3
:1022A00065FAF3E71800002000000000FEE70000D8
:1022B0002348F6EE000A9FED230AC0ED000A80EDE8
:1022C000010A80ED020A80ED030A80ED050A80ED27
:1022D000060A80ED070A002101622430B3EE041AD9
:1022E00080ED001A80ED010A80ED020A80ED030AFC
:1022F00080ED050A80ED060A80ED070A01626C3860
:10230000C0ED000A80ED010A80ED020A80ED030AAB
:1023100080ED050A80ED060A80ED070A016224308F
:10232000C0ED000A80ED010A80ED020A80ED030A8B
:1023300080ED050A80ED060A80ED070A016270470C
:10234000200300200000000070477047FFF734B8FA
:1023500030B593B030216846FDF7A4FF14210CA8D6
:10236000FDF7A0FF1D480025016841F08051016084
:10237000006800F0805011901948016841F48041D4
:1023800001600068022400F4804011900120039055
:1023900010200490009406940820CDE90750A8204E
:1023A000CDE9090404200B906846FFF78BF908B1CA
:1023B00072B6FEE70CA90F2081E831004FF4A0505F
:1023C0000F904FF48050109005210CA8FFF78EF865
:1023D000002801D072B6FEE713B030BD403802408D
:1023E000007000400248016841F4700101607047CC
:1023F00088ED00E0F0B50268254C264D264E274FAB
:10240000274B4FF0804CA04209D0604507D0A8422E
:1024100005D0B04203D0B84201D0984204D122F096
:10242000700E4A6842EA0E02A0421BD0604519D0E5
:10243000A84217D0B04215D0B84213D0984211D05C
:10244000184DA8420ED0184DA8420BD0174DA842E7
:1024500008D0174DA84205D0164DA84202D0164DFF
:10246000A84203D122F44075CA682A434D6922F07C
:1024700080022A4302608A68C2620A688262A042BD
:1024800001D0984201D10969016301214161F0BD88
:10249000000001400004004000080040000C004023
:1024A0000004014000400140004401400048014058
:1024B00000180040001C00400020004010B501F052
:1024C0001F030121046A99408C430462016A9A4007
:1024D0001143016210BD0000F0B5026A22F0010252
:1024E0000262036A42688469124E24F073050C6824
:1024F0002C4323F002058B682B430D4DA84201D0DD
:10250000B04205D123F00807CB683B4323F0040316
:10251000A84201D0B04205D14D6922F44072154362
:102520008A692A4342608461496841630362F0BD5D
:102530000000014000040140F0B5026A22F01002E0
:102540000262026A436884690D6824F4E64444EA3E
:1025500005248D6822F0200242EA05120F4D104E2C
:10256000A84201D0B04206D1CF6822F0800242EAF0
:10257000071222F04002A84201D0B04207D14D69B3
:1025800023F4406343EA85038D6943EA850343608E
:102590008461496881630262F0BD0000000001406F
:1025A00000040140F0B5026A22F480720262026AFD
:1025B0004368C46922F4007224F073050C68124E5B
:1025C0002C438D6842EA05220E4DA84201D0B0424C
:1025D00006D1CF6822F4006242EA072222F4806228
:1025E000A84201D0B04207D14D6923F4405343EAD9
:1025F00005138D6943EA05134360C4614968C163EB
:102600000262F0BD000001400004014030B5026AE2
:1026100022F480520262046A4268C3690D6823F49E
:10262000E64343EA05238D6824F4005444EA053464
:10263000084DA84202D0084DA84204D14D6922F4A9
:10264000804242EA85124260C361496801640462C3
:1026500030BD0000000001400004014070B5044698
:1026600000680169E26821F4405111430161216968
:10267000A068E26908436169114308432168CA6898
:1026800049F20C639A430243CA6020684169A26917
:1026900021F440711143416131492068884202D0E0
:1026A0003049884202D1FEF7CBFF01E0FEF7B8FFC8
:1026B000E2690023192164253226B2F5004F6268D1
:1026C00028D0A0FB0101930F9200FDF7B3FD014656
:1026D000B0FBF5F06FF01802504301EB800006EB01
:1026E0000010B0FBF5F000F0F002B1FBF5F002EBEA
:1026F0000012B1FBF5F06FF01803584301EB8000B6
:1027000006EB0010B0FBF5F000F00F00216810445C
:10271000886070BDA0FB010192185B41FDF78AFD46
:102720000146B0FBF5F00201B1FBF5F06FF01803C4
:10273000584301EB800006EBC000B0FBF5F000F061
:10274000F80002EB4002B1FBF5F0584301EB8000CA
:1027500006EBC000B0FBF5F000F00700D6E7000084
:102760000010014000140140FEE7000010B54FF0DA
:10277000E0202DED028BB0EE401A80691E4C9FEDDB
:102780001F0ADFED1F0A216A884201D2091A03E0FD
:102790006FF07F42121A114401EE901A2062F8EE97
:1027A000611A81EE802A62EE200AF5EEC00AF1EE8F
:1027B00010FA04D010EE900AB0F17C5F01DDDFED7D
:1027C000110A94ED040A01EE200A00F0D1FC0E4833
:1027D00084ED040A90ED038A007900F0FFFBB0EE6F
:1027E000401ADFED0A0AB0EE480A01F0EDF8B0EE4B
:1027F000480ABDEC028B10BD1800002000002843E1
:10280000BD3786356F12833A9C020020000000001D
:102810000FB4054B10B503A9044A029800F0CAFC96
:1028200010BC5DF814FB0000493900084C00002082
:1028300003B401984100009850EAC12018BF042059
:102840004A0D18BF40F0010040F2FF72B2EB515F39
:1028500008BF40F00200012808BF052002B0704701
:102860000907090E002804DB00F1E02080F80014BD
:10287000704700F00F0000F1E02080F8141D704751
:1028800070B59B482DED020B2DED068B079D25F0B5
:102890000044A04218DC9748844202DC0AD1069822
:1028A00040B19DED060BBDEC068B02B0BDE870405B
:1028B00000F048BB002DCCBF9FED8F0B9FED900B20
:1028C000BDEC068B02B070BD8F48A04215DD8F486D
:1028D000A042D8BF4FF0FF3458DD9DED060B51EC00
:1028E000100BFFF7A5FF042808BF00F051FB9DED7A
:1028F000060BBDEC068B02B070BD9DED060B51ECD6
:10290000100B01F015F8CDE9060181489FED828B8F
:10291000A0423CDD8248A0421FDD00249FED82AB37
:102920009DED060B53EC1A2B51EC100BFDF7C5FC7B
:102930009DED060B41EC190B53EC1A2B51EC100BCF
:10294000FDF762FD53EC182BFDF758FD53EC192BE6
:10295000FDF7CCFDCDE9060149E09DED060B012414
:1029600053EC182B51EC100BFDF7A7FC9DED060B5B
:1029700041EC190B53EC182B51EC100BFDF73EFDFD
:1029800053EC192BFDF7B2FDCDE906012FE06848A5
:10299000A0421FDD02249FED689B9DED060B53ECCA
:1029A000192B51EC100BFDF72FFD53EC182BFDF7F5
:1029B00084FC9DED060B41EC180B53EC192B51ECEC
:1029C000100BFDF71BFD53EC182BFDF78FFDCDE928
:1029D00006010CE09DED060B032453EC102B9FED3C
:1029E000580B51EC100BFDF781FDCDE906019DED73
:1029F000060B53EC102B51EC100BFDF705FD41ECD1
:102A0000180B53EC182BFDF7FFFC41EC190B4E484B
:102A10000621B0EE490AF0EE690A784400F016FA91
:102A200053EC182B51EC100BFDF7EEFC41EC180B9E
:102A30004648B0EE490AF0EE690A0521784400F0F4
:102A400005FA53EC192B51EC100BFDF7DDFC41ECB2
:102A5000100B51EC180B53EC102B002C0EDAFDF779
:102A60002CFC9DED061B53EC112BFDF7CDFC9DEDD1
:102A7000061B53EC112BFDF7C4FC35E0FDF71DFCE4
:102A80009DED061B53EC112BFDF7BEFC41EC100B2A
:102A90002F48784400EBC40090ED001B51EC100B64
:102AA00053EC112BFDF7AAFC9DED061B53EC112BEB
:102AB000FDF7A4FC41EC100B2648784400EBC40061
:102AC00090ED001B51EC100B53EC112BFDF799FC12
:102AD00041EC100B002DA2BFBDEC068B02B070BD07
:102AE00051EC100B81F0004141EC100B01E70000AC
:102AF000000010440000F07F182D4454FB21F93FE2
:102B0000182D4454FB21F9BF0000DC3F0000203E9B
:102B10000000F33F00000000000000000000F03F54
:102B20000000E63F00000000000000000000004040
:102B30000080034000000000000000000000F83F9B
:102B4000000000000000F0BF5A1A0000101A000038
:102B50009A1900005219000070B56B4E2DED040B50
:102B60002DED028B82B0DDF81CC0DDE905235C424F
:102B70002CF000411C4341EAD474049D22F0004033
:102B8000B44205D86C422C4340EAD474B4420BD909
:102B90009DED061B9DED040B02B0BDEC028B04B055
:102BA000BDE8704000F0D8B9ACF14054A4F17F64A6
:102BB0001C430BD0022404EAAC7444EAD2740543EB
:102BC0009FED538B9FED542B07D015E09DED040B2B
:102BD00051EC100B00F092FE42E0002C11BF012CD2
:102BE0009DED040B02B0BDEC028B04BF04B070BDC0
:102BF000022C38D0032C3BD00B439FED491B9FED9B
:102C00004A0B0AD0B14218D1B04209D121F080411B
:102C100020F08040079105900FE0002A15DA10E0BF
:102C2000434B7B44002C08BF93ED000B0DD0012CCF
:102C300010D0022C17D0032C1AD0B0421DD1002A7C
:102C400003DAB0EE410AF0EE610A02B0BDEC028B8D
:102C500004B070BD93ED000B51EC100B81F00041FE
:102C600041EC100BF1E7B0EE480AF0EE680AECE731
:102C7000B0EE420AF0EE620AE7E7401A00153C287F
:102C8000C8BF8DED000B19DCBCF1000FBEBF10F109
:102C90003C0F9FED290B8DED000B0FDB9DED060B1F
:102CA00053EC102B9DED040B51EC100BFDF71EFCAB
:102CB00000F03EFE00F022FECDE90001002C08BF2E
:102CC0009DED000BC1D0012C10D0022C9FED1C0BF0
:102CD00053EC102B9DED000B51EC100B0DD0FDF7BC
:102CE0008DFB53EC182BFDF789FBB9E7019880F0B9
:102CF000004001909DED000BA7E7FDF77FFB53EC33
:102D0000182BFDF77EFBABE70000F07F0000000012
:102D1000182D4454FB210940182D4454FB2109C0AF
:102D2000182D4454FB21F9BF182D4454FB21F93FC1
:102D300082180000000000000000000000000000F9
:102D4000075C143326A6A13C10B52DED040B86B00C
:102D50009DED060B10EE100A10EE901A8DED000B93
:102D6000002818BF0120084320F00040C0F17F6018
:102D700000F1E040C00F21D19DED080B10EE101ABC
:102D800010EE900A8DED000B002918BF01210843B9
:102D900020F00040C0F17F6000F1E040C00F0DD195
:102DA00029490798B1EB400F04BF0698002842D08C
:102DB0000998400004BF089800283CD09DED080BFE
:102DC00053EC102B9DED060B51EC100BFDF714FD91
:102DD000CDE902019DED020B40F2FF7110EE900A69
:102DE0008DED000B31EA105021D00798039900F0C7
:102DF000004001F00041884219D09DED080B8DED97
:102E0000040B9DED020B8DED000B10EE900A059961
:102E100061F31E0005909DED041B9DED020B51EC2E
:102E2000110B53EC102BFDF7ECFACDE902019DEDEF
:102E3000020B0AB010BD012000F0CAF80AB0BDE8CC
:102E4000104000F095B800000000E0FF70B50446A7
:102E50002DED028B4D1E00EBC500B0EE408AF0EE6A
:102E6000608A90ED000B35F0060017D053EC182B5C
:102E700051EC100BFDF7C8FA41EC100B6D1E04EB82
:102E8000C50090ED001B51EC100B53EC112BFDF71E
:102E900014FA41EC100B35F00600E7D1022D36D0C4
:102EA000042D1CD0062D1CBFBDEC028B70BD53EC55
:102EB000182B51EC100BFDF7A7FA94ED0A1B53ECFD
:102EC000112BFDF7FAF953EC182BFDF79DFA94ED51
:102ED000081B53EC112BFDF7F0F941EC100B53ECF0
:102EE000182B51EC100BFDF78FFA94ED061B53ECE9
:102EF000112BFDF7E2F953EC182BFDF785FA94ED51
:102F0000040B53EC102BFDF7D8F941EC100B53ECEC
:102F1000182B51EC100BFDF777FA94ED021B53ECD4
:102F2000112BFDF7CAF953EC182BFDF76DFA94ED50
:102F3000001B53EC112BFDF7C0F9BDEC028B41ECEB
:102F4000100B70BD10B553EC102B51EC100BFDF7AE
:102F5000B4F941EC100B10BD10B553EC112B51EC32
:102F6000100BFDF7AAF941EC100B10BD000000009A
:102F70009FED050B10B553EC102B51EC100BFDF72A
:102F8000B5FA41EC100B10BD00000000000000007D
:102F90009FED050B10B553EC102B51EC100BFDF70A
:102FA00033FA41EC100B10BD0000000000000010CF
:102FB00002E008C8121F08C1002AFAD17047704702
:102FC000002001E001C1121F002AFBD17047000060
:102FD00001490860704700005000002000EE900A90
:102FE000F8EEE00A20EE200A704700002DE9FF5FAE
:102FF00082B00021DDE90430020DDDF840B003436A
:1030000018D044F61050A2F2FF3242431514119822
:1030100001281FD0A5EB0B00401C5FEA000A4FF00F
:1030200000064E4FDFF83891B046504615D5CAF12C
:10303000000413E0119801244AA3012801D16FEA8A
:103040000B010298119AC0E90031C0E9024206B0B2
:10305000BDE8F09FCBF10000DFE704460021404AC5
:10306000491842EB0450CDE9001012E0E00707D008
:1030700032463B4640464946FDF7C6F980468946FA
:1030800032463B4610461946FDF7BEF906460F4646
:103090006410002CEAD1DDE90401DDE90023BAF176
:1030A000000F06DAFDF7B0F942464B46FDF7ACF9E2
:1030B00005E0FDF71BFA42464B46FDF717FA0446BA
:1030C0000E460022284BFDF7F3FB03D84FF0FF30EC
:1030D000014607E00022254B20463146FDF7EDF87A
:1030E000FDF7CDFB102409E0002C0ADB0A220023A7
:1030F000FDF7A0F8039B30321A55641E50EA010216
:10310000F2D1641C039AC4F111031444119A012AE8
:1031100003D0012208430DD10AE0084304D0002067
:103120004FF0110B119072E7A3EB0B056D1E0DE034
:103130005B4504DD4FF0000205F1010504E003DA10
:103140004FF00002A5F10105002AECD00298119978
:10315000C0E90231C0E9004579E7000000001440F1
:103160000000F03F300000000000F0430000E03FAE
:1031700010B510EE100AFDF735FA41EC100B9FED7B
:103180000A1BFFF7E1FD51EC100BFDF73EFA00EED4
:10319000100AB5EEC00AF1EE10FA03DADFED040A08
:1031A00030EE200A10BD000000000060FB21194035
:1031B000DB0FC9402DE9FF4F95B09B468946064677
:1031C00000250FE2252877D100242746F84A01215F
:1031D000059400E0044316F8013F203B01FA03F098
:1031E0001042F7D130782A2811D06FF02F033078B1
:1031F000A0F13002092A16D8059A44F0020402EB25
:10320000820203EB42021044761C0590EFE759F866
:10321000042B0592002A03DA504244F4005405902E
:1032200044F00204761C30782E2816D116F8010FCF
:1032300044F004042A280DD06FF02F023078A0F15A
:103240003003092B09D807EB870302EB4303C718A8
:10325000761CF3E759F8047B761C30786C280FD085
:1032600006DC4C2817D068280DD06A2814D104E059
:10327000742810D07A280FD10DE044F400140AE02D
:1032800044F4801401E044F440147278824202D184
:1032900004F58014761C761C307866280BD013DC7D
:1032A000582877D009DC002875D04528F6D0462864
:1032B000F4D047281AD19DE118E0632835D064285E
:1032C00079D0652812D195E1702873D008DC672881
:1032D000F1D069286FD06E280DD06F2806D1B5E0E7
:1032E00073282CD0752875D0782874D05A46179931
:1032F00090476D1C75E1C4F30250022809D00328E1
:103300000DD0D9F8001004280DD00D6009F1040982
:1033100067E1D9F80010EA17C1E90052F6E7D9F8D9
:1033200000100D80F2E70D70F0E719F8041B8DF81E
:10333000001000208DF80100EA46012003E059F852
:1033400004AB4FF0FF3061074FF0000102D40DE0F5
:1033500008F101018846B9420FDA8045F8DB1AF816
:1033600008100029F4D108E008F1010188468142E3
:10337000FADB1AF808100029F6D105985B46A0EB95
:10338000080721463846179A00F094FA284400EBC3
:10339000080507E04DE029E10DE01AF8010B5A4657
:1033A00017999047B8F10108F7D25B462146384695
:1033B000179A13E142E00A220092C4F302524FF03E
:1033C000000A022A08D059F804CB032A4FEAEC710C
:1033D0000AD00DE029E02AE009F1070121F00702F7
:1033E000F2E802C1914609E00FFA8CFC4FEAEC7159
:1033F000042A03D14FFA8CFC4FEAEC71002907DA5A
:103400000A460021DCF1000C61EB02012D2202E0F2
:10341000220504D52B228DF80420012203E0E207C7
:1034200001D02022F7E7904659E00A2102E010225D
:103430000DE010214FF0000A00910BE010224FF038
:10344000000A44F004040827009203E008224FF029
:10345000000A0092C4F30252022A05D059F804CBA4
:103460000021032A08D009E009F1070121F0070231
:10347000F2E802C1914605E01FFA8CFC042A01D152
:103480000CF0FF0C4FF00008220728D5702806D05A
:10349000009B83F0100353EA0A0305D00EE040229C
:1034A0008DF80420012208E05CEA010206D03022F7
:1034B0008DF804208DF8050002229046009B83F0D1
:1034C000080353EA0A030AD15CEA010201D1620748
:1034D00005D530228DF804204FF001087F1E5828B2
:1034E00004D034A003900EA802900DE036A0F9E7B6
:1034F00053466046009AFCF79DFE84460398825C22
:103500000298401E029002705CEA0100F0D102981D
:1035100006A9081A00F1200A600702D524F48034B5
:1035200000E00127574502DDA7EB0A0000E000207C
:1035300000EB0A01009005984144401A0590E00311
:1035400006D45B462146179A059800F0B3F9054466
:10355000002706E001A85A46C05D179990476D1CE8
:103560007F1C4745F6DBE0030CD55B462146179AE6
:10357000059800F09FF9054404E030205A46179959
:1035800090476D1C0099481E00900029F5DC08E06A
:10359000029802995A460078491C0291179990475F
:1035A0006D1CBAF10001AAF1010AF1DC65E100002D
:1035B0000928010030313233343536373839616209
:1035C00063646566000000003031323334353637CD
:1035D00038394142434445460000000000F058F9A4
:1035E0000544761C307800287FF4ECAD19B02846ED
:1035F000BDE8F08F620700D4062709F1070222F028
:10360000070CFCE80223E14603F000485FEA080CDF
:1036100002D00FF2702C0DE05FEA045C02D50FF2CD
:10362000682C07E05FEAC47C02D00FF2602C01E056
:10363000AFF2700C4FF0FF3823F00043CDF850C0CC
:1036400065280CD006DC452809D046281DD047281F
:103650003DD13DE0662818D067287ED138E00021B2
:10366000112F01DB112000E0781CCDE9000106A933
:103670000EA8FFF7BBFCDDE90F010E9A03910021B4
:10368000009207F1010A04914DE04FF000400097CD
:10369000CDE9011006A90EA8FFF7A8FCDDE90F028D
:1036A00003920E9B11990022DDF80CA00093049266
:1036B00011B9791C00EB010AB7EB0A0004D4C0F180
:1036C000FF3007F1010A0490AAEB0700019044E0E3
:1036D000012F00DA01270021112F01DD112000E068
:1036E0003846CDE9000106A90EA8FFF77FFCDDE909
:1036F0000F010E9A0391002104910092BA4621070E
:103700000CD40399514500DA8A46BAF1010F05DD60
:10371000009AAAF10101515C302908D0B84202DABE
:1037200010F1040F06DA0121CDE9011015E0AAF12C
:103730000101E9E7002805DC049901440491AAEBA2
:10374000000102E0411C514500DD8A460499401AFF
:10375000401C01904FF000400290200704D40198D3
:10376000504501DBCDF8048000208DF84F00029811
:103770000DF14F07B0F1004F25D02B200E9002988D
:103780004FF0020800280CDA404202902D200E90E3
:1037900007E00A210298FCF754FF3031029007F845
:1037A000011DB8F10001A8F10108F2DC029800281F
:1037B000EFD1791E0E980870307800F0200040F0AC
:1037C000450007F8020D12A8C01B00F10708149865
:1037D000007800B1012000EB0A01019801EBE071D3
:1037E00005984144401A401E0590E00306D45B460C
:1037F0002146179A059800F05DF805441498007862
:1038000018B15A46179990476D1CE00324D55B46C2
:103810002146179A059800F04DF805441CE00498DD
:10382000002807DBDDE90301884203DD0098405CE6
:10383000179901E0179930205A469047049805F1EE
:103840000105401C04900198401E019004D12E20D7
:103850005A46179990476D1CBAF10001AAF1010A66
:10386000DDDC05E017F8010B5A46179990476D1CEF
:10387000B8F10001A8F10108F4DC5B462146179A73
:103880000598ABE62D0000002B0000002000000092
:103890002DE9F041044600251E461746880404D44D
:1038A00005E039462020B0476D1C641EF9D5284636
:1038B000BDE8F0812DE9F041044600251E46904602
:1038C000C80301D5302700E02027880404D505E08F
:1038D00041463846B0476D1C641EF9D52846BDE800
:1038E000F081000010EE100A0349A1EB600000EE29
:1038F000900A20EE200A7047865A375F10B541ECD7
:10390000100BFEF7BDFF51EC100B10BD10B50446B7
:103910000420FEF78DF84FF0E020034941610021BB
:1039200081610248046010BDFEFFFF00140000200A
:1039300082B0CDE9000121F0004001909DED000B27
:1039400002B051EC100B704702490A681206FCD510
:103950004860704700100140FDF736FDFEF7F8FCA7
:10396000FEF752FBFEF72AFBFEF7ECFAFEF714FC1B
:10397000FEF792FBFEF7B0FBA820FFF7C7FF002180
:103980000E48FEF7B9F904210C48FEF7B5F90821F5
:103990000A48FEF7B1F9FEF7B3FAFEF789FCFDF726
:1039A00045F8074903200870FEF714FC054C00BFDA
:1039B00094ED000AFEF75AFCFAE7000050010020DF
:1039C000180000200000002010B57E4C2DED088B63
:1039D000F0EE608AF0EE419AF5EEC08AB0EE408AD1
:1039E000F1EE10FA2CD028EEA80A08EE080AFFF72C
:1039F00079FFD4ED000A18EE900A80EE209AFCF7C9
:103A0000F1FD41EC1A0B18EE100AFCF7EBFD41EC4E
:103A1000100BB0EE4A1AF0EE6A1AFFF79DF8B0EEFE
:103A2000408AF0EE608A19EE900AFCF7DBFD53EC59
:103A3000182BFCF742FCFCF7E8FD00EE100A07E04B
:103A400094ED000A88EE009A9FED5F0A39EE800A35
:103A5000FFF78EFBF0EE408A9FED5C1AB7EE00BADE
:103A600088EE810A30EE0B0AFCEEC00AB0EE680A5E
:103A700010EE904A00EE904AF8EE600A10EE810ACD
:103A8000FCF79EFBDFED529A204620EE290A20EE3D
:103A9000098AFCF79AFD9FED4F1B53EC112BFCF7A5
:103AA000ADFC9FED4E1B53EC112BFCF7ADFC41EC34
:103AB0001A0B18EE900AFCF795FD53EC1A2BFCF745
:103AC0009DFCFCF7A2FD00EE100AFCF779FB20EE4E
:103AD000290A7BEE480AF6EE001A072C20EE090AA6
:103AE00030EEC02A3AD2DFE804F039040B161D2765
:103AF000300038EE001AF0EE400A02EE211A05E01E
:103B0000B0EE481A78EE000A02EE211A22EE210ADF
:103B100042EE210A28E078EE000A22EE211A42EE57
:103B2000210A06E0F0EE480A22EE211A42EE210AAE
:103B300008E002EE210A17E0B0EE401A62EE210A18
:103B400002EE211A38EE000AF3E738EE001A62EEB0
:103B5000210AB0EE480A02EE211AEAE7DFED210A57
:103B6000B0EE601AB0EE600A1F48C1680268491CD6
:103B700001EE901AF8EE611A21EE811ABCEEC11A1C
:103B800011EE101A5163C1680268491C01EE101A47
:103B9000B8EE411A61EE200AFCEEE00A10EE901A2F
:103BA0009163C1680068491C00EE901AF8EE600A43
:103BB00020EE800ABCEEC00A10EE101AC163BDEC04
:103BC000088B10BD9C020020DB0FC93F920A863F84
:103BD000D7B3DD3F000000000000F03F00000040D0
:103BE00052C1F03F000000005001002000061016F6
:103BF000000610160000000000000000010203048F
:103C0000060708090000000001020304000000008C
:103C1000920E493CB10AC93C2BC3163D2EFB483DD0
:103C2000752B7B3D04A9963D80B6AF3D36BDC83DA2
:103C30002FBCE13D73B2FA3D87CF093E8340163E6B
:103C4000B5AB223EA2102F3ECF6E3B3EC2C5473ED3
:103C50000115543E135C603E7F9A6C3ECCCF783E9B
:103C6000C07D823E938E883E229A8E3E32A0943E44
:103C700086A09A3EE59AA03E128FA63ED47CAC3E2A
:103C8000EF63B23E2A44B83E491DBE3E15EFC33E27
:103C900053B9C93ECA7BCF3E4136D53E80E8DA3EB5
:103CA0004F92E03E7533E63EBBCBEB3EEA5AF13E27
:103CB000CBE0F63E275DFC3EE4E7003F3D9C033F42
:103CC000824B063F9BF5083F6B9A0B3FDA390E3F5C
:103CD000CDD3103F2A68133FD9F6153FC07F183F58
:103CE000C6021B3FD17F1D3FCBF61F3F9967223F86
:103CF00025D2243F5636273F1594293F4AEB2B3FC8
:103D0000DE3B2E3FBB85303FC9C8323FF304353F11
:103D1000233A373F4268393F3B8F3B3FF9AE3D3F47
:103D200067C73F3F70D8413F01E2433F03E4453F4F
:103D300065DE473F12D1493FF8BB4B3F029F4D3FE5
:103D4000207A4F3F3D4D513F4918533F31DB543F9F
:103D5000E595563F5348583F6AF2593F1A945B3FE6
:103D6000532D5D3F05BE5E3F2146603F97C5613FD5
:103D70005A3C633F59AA643F880F663FD86B673F40
:103D80003CBF683FA7096A3F0C4B6B3F5E836C3FAB
:103D900093B26D3F9ED86E3F73F56F3F0809713F38
:103DA0005213723F4714733FDD0B743F0BFA743F9D
:103DB000C6DE753F07BA763FC58B773FF853783F2D
:103DC0009812793F9DC7793F02737A3FBE147B3FBB
:103DD000CDAC7B3F283B7C3FC9BF7C3FAC3A7D3FAD
:103DE000CCAB7D3F23137E3FB0707E3F6DC47E3FE2
:103DF000580E7F3F6D4E7F3FAB847F3F0FB17F3FBB
:103E000097D37F3F43EC7F3F11FB7F3F0000803F14
:103E100011FB7F3F43EC7F3F97D37F3F0FB17F3F45
:103E2000AB847F3F6D4E7F3F580E7F3F6DC47E3F1A
:103E3000B0707E3F23137E3FCCAB7D3FAC3A7D3FDD
:103E4000C9BF7C3F283B7C3FCDAC7B3FBE147B3F52
:103E500002737A3F9DC7793F9812793FF853783FB4
:103E6000C58B773F07BA763FC6DE753F0BFA743FC6
:103E7000DD0B743F4714733F5213723F0809713FC3
:103E800073F56F3F9ED86E3F93B26D3F5E836C3F7C
:103E90000C4B6B3FA7096A3F3CBF683FD86B673F3D
:103EA000880F663F59AA643F5A3C633F97C5613FFC
:103EB0002146603F05BE5E3F532D5D3F1A945B3F38
:103EC0006AF2593F5348583FE595563F31DB543F1E
:103ED0004918533F3D4D513F207A4F3F029F4D3F80
:103EE000F8BB4B3F12D1493F65DE473F03E4453FF6
:103EF00001E2433F70D8413F67C73F3FF9AE3D3FC6
:103F00003B8F3B3F4268393F233A373FF304353F0D
:103F1000C9C8323FBB85303FDE3B2E3F4AEB2B3FCB
:103F20001594293F5636273F25D2243F9967223FD3
:103F3000CBF61F3FD17F1D3FC6021B3FC07F183FFE
:103F4000D9F6153F2A68133FCDD3103FDA390E3F1B
:103F50006B9A0B3F9BF5083F824B063F3D9C033F0E
:103F6000E4E7003F275DFC3ECBE0F63EEA5AF13E37
:103F7000BBCBEB3E7533E63E4F92E03E80E8DA3E47
:103F80004136D53ECA7BCF3E53B9C93E15EFC33E3D
:103F9000491DBE3E2A44B83EEF63B23ED47CAC3EDF
:103FA000128FA63EE59AA03E86A09A3E32A0943E8D
:103FB000229A8E3E938E883EC07D823ECCCF783E44
:103FC0007F9A6C3E135C603E0115543EC2C5473E6D
:103FD000CF6E3B3EA2102F3EB5AB223E8340163E35
:103FE00087CF093E73B2FA3D2FBCE13D36BDC83DD7
:103FF00080B6AF3D04A9963D752B7B3D2EFB483D19
:104000002BC3163DB10AC93C920E493C000000008A
:10401000920E49BCB10AC9BC2BC316BD2EFB48BDCC
:10402000752B7BBD04A996BD80B6AFBD36BDC8BD9E
:104030002FBCE1BD73B2FABD87CF09BE834016BE67
:10404000B5AB22BEA2102FBECF6E3BBEC2C547BECF
:10405000011554BE135C60BE7F9A6CBECCCF78BE97
:10406000C07D82BE938E88BE229A8EBE32A094BE40
:1040700086A09ABEE59AA0BE128FA6BED47CACBE26
:10408000EF63B2BE2A44B8BE491DBEBE15EFC3BE23
:1040900053B9C9BECA7BCFBE4136D5BE80E8DABEB1
:1040A0004F92E0BE7533E6BEBBCBEBBEEA5AF1BE23
:1040B000CBE0F6BE275DFCBEE4E700BF3D9C03BF3E
:1040C000824B06BF9BF508BF6B9A0BBFDA390EBF58
:1040D000CDD310BF2A6813BFD9F615BFC07F18BF54
:1040E000C6021BBFD17F1DBFCBF61FBF996722BF82
:1040F00025D224BF563627BF159429BF4AEB2BBFC4
:10410000DE3B2EBFBB8530BFC9C832BFF30435BF0D
:10411000233A37BF426839BF3B8F3BBFF9AE3DBF43
:1041200067C73FBF70D841BF01E243BF03E445BF4B
:1041300065DE47BF12D149BFF8BB4BBF029F4DBFE1
:10414000207A4FBF3D4D51BF491853BF31DB54BF9B
:10415000E59556BF534858BF6AF259BF1A945BBFE2
:10416000532D5DBF05BE5EBF214660BF97C561BFD1
:104170005A3C63BF59AA64BF880F66BFD86B67BF3C
:104180003CBF68BFA7096ABF0C4B6BBF5E836CBFA7
:1041900093B26DBF9ED86EBF73F56FBF080971BF34
:1041A000521372BF471473BFDD0B74BF0BFA74BF99
:1041B000C6DE75BF07BA76BFC58B77BFF85378BF29
:1041C000981279BF9DC779BF02737ABFBE147BBFB7
:1041D000CDAC7BBF283B7CBFC9BF7CBFAC3A7DBFA9
:1041E000CCAB7DBF23137EBFB0707EBF6DC47EBFDE
:1041F000580E7FBF6D4E7FBFAB847FBF0FB17FBFB7
:1042000097D37FBF43EC7FBF11FB7FBF000080BF10
:1042100011FB7FBF43EC7FBF97D37FBF0FB17FBF41
:10422000AB847FBF6D4E7FBF580E7FBF6DC47EBF16
:10423000B0707EBF23137EBFCCAB7DBFAC3A7DBFD9
:10424000C9BF7CBF283B7CBFCDAC7BBFBE147BBF4E
:1042500002737ABF9DC779BF981279BFF85378BFB0
:10426000C58B77BF07BA76BFC6DE75BF0BFA74BFC2
:10427000DD0B74BF471473BF521372BF080971BFBF
:1042800073F56FBF9ED86EBF93B26DBF5E836CBF78
:104290000C4B6BBFA7096ABF3CBF68BFD86B67BF39
:1042A000880F66BF59AA64BF5A3C63BF97C561BFF8
:1042B000214660BF05BE5EBF532D5DBF1A945BBF34
:1042C0006AF259BF534858BFE59556BF31DB54BF1A
:1042D000491853BF3D4D51BF207A4FBF029F4DBF7C
:1042E000F8BB4BBF12D149BF65DE47BF03E445BFF2
:1042F00001E243BF70D841BF67C73FBFF9AE3DBFC2
:104300003B8F3BBF426839BF233A37BFF30435BF09
:10431000C9C832BFBB8530BFDE3B2EBF4AEB2BBFC7
:10432000159429BF563627BF25D224BF996722BFCF
:10433000CBF61FBFD17F1DBFC6021BBFC07F18BFFA
:10434000D9F615BF2A6813BFCDD310BFDA390EBF17
:104350006B9A0BBF9BF508BF824B06BF3D9C03BF0A
:10436000E4E700BF275DFCBECBE0F6BEEA5AF1BE33
:10437000BBCBEBBE7533E6BE4F92E0BE80E8DABE43
:104380004136D5BECA7BCFBE53B9C9BE15EFC3BE39
:10439000491DBEBE2A44B8BEEF63B2BED47CACBEDB
:1043A000128FA6BEE59AA0BE86A09ABE32A094BE89
:1043B000229A8EBE938E88BEC07D82BECCCF78BE40
:1043C0007F9A6CBE135C60BE011554BEC2C547BE69
:1043D000CF6E3BBEA2102FBEB5AB22BE834016BE31
:1043E00087CF09BE73B2FABD2FBCE1BD36BDC8BDD3
:1043F00080B6AFBD04A996BD752B7BBD2EFB48BD15
:104400002BC316BDB10AC9BC920E49BC0000008086
:104410004FBB610567ACDD3F182D4454FB21E93FDC
:104420009BF681D20B73EF3F182D4454FB21F93FCB
:10443000E2652F227F2B7A3C075C143326A6813C51
:10444000BDCBF07A8807703C075C143326A6913CFC
:10445000C4EB98999999C9BF711623FEC671BCBF68
:104460006D9A74AFF2B0B3BF9AFDDE522DDEADBFD0
:104470002F6C6A2C44B4A2BF0D5555555555D53FE8
:10448000FF8300922449C23F6E204CC5CD45B73F03
:10449000513DD0A0660DB13FEB0D76244B7BA93F7B
:1044A00011DA22E33AAD903F000000000000000066
:1044B000D04400080000002054000000B02F000885
:1044C000244500085400002014070000C02F0008F5
:1044D000000040400100000010000000000000004B
:1044E0000024F400000000000000000000000000B4
:1044F00000000000000000000000000000000000BC
:1045000000000000000000000000000000000000AB
:10451000000000000000000000000000000000009B
:044520000000000097
:040000050800018965
:00000001FF
